:020000040800F2
:100000000020002025200008251F0008271F0008C9
:1000100000000000000000000000000000000000E0
:10002000000000000000000000000000E5140008CF
:100030000000000000000000B1150008291F0008A2
:10004000752000087520000875200008752000083C
:10005000752000087520000875200008752000082C
:1000600000000000752000087520000875200008B9
:1000700075200008752000080000000075200008A9
:100080000000000000000000000000000000000070
:100090007520000800000000752000087520000889
:1000A00000000000752000080000000000000000B3
:1000B0007520000875200008000000000000000006
:1000C00010B5064C2378002B07D1054B002B02D02E
:1000D000044800E000BF0123237010BD0800002089
:1000E00000000000D0200008044B10B5002B03D006
:1000F0000349044800E000BF10BDC04600000000F6
:100100000C000020D020000802B4714649084900C4
:10011000095C49008E4402BC7047C0460022430877
:100120008B4274D303098B425FD3030A8B4244D3BF
:10013000030B8B4228D3030C8B420DD3FF22090201
:1001400012BA030C8B4202D31212090265D0030BC0
:100150008B4219D300E0090AC30B8B4201D3CB03B6
:10016000C01A5241830B8B4201D38B03C01A5241F8
:10017000430B8B4201D34B03C01A5241030B8B42FA
:1001800001D30B03C01A5241C30A8B4201D3CB02E5
:10019000C01A5241830A8B4201D38B02C01A5241CA
:1001A000430A8B4201D34B02C01A5241030A8B42CD
:1001B00001D30B02C01A5241CDD2C3098B4201D3E5
:1001C000CB01C01A524183098B4201D38B01C01A63
:1001D000524143098B4201D34B01C01A52410309DA
:1001E0008B4201D30B01C01A5241C3088B4201D389
:1001F000CB00C01A524183088B4201D38B00C01A36
:10020000524143088B4201D34B00C01A5241411A5C
:1002100000D20146524110467047FFE701B5002069
:1002200000F006F802BDC0460029F7D076E7704717
:100230007047C046002B11D1002A0FD1002900D1F0
:10024000002802D00021C943081C07B4024802A1BB
:100250004018029003BDC046D9FFFFFF03B46846B3
:1002600001B5029800F006F8019B9E4602B00CBC56
:100270007047C046F0B557464E464546DE46E0B5A7
:10028000040083B00D00924699468B422FD82CD0A3
:100290004946504600F0AEF829000600200000F064
:1002A000A9F8331A9846203B9B4600D574E0534684
:1002B0005A4693401F005346424693401E00AF42A9
:1002C00029D826D05B46A41BBD41002B00DA79E07B
:1002D000002200230092019301235A469340019388
:1002E000012342469340009319E08242D0D9002274
:1002F0000023009201930C9B002B01D01C605D60D9
:100300000098019903B03CBC90469946A246AB4682
:10031000F0BDA342D6D900220023009201934346A8
:10032000002BE8D0FB0772081A4346467B080EE014
:10033000AB4201D1A2420CD8A41A9D41012024193C
:100340006D410021013E24184D41002E06D0AB42E4
:10035000EED9013E24196D41002EF8D15B4600987C
:10036000019900196941002B22DB2B005A46D3402A
:100370002A004446E2401C005B461500002B2CDBA3
:1003800026009E40330026004746BE403200801AB9
:10039000994100900191AEE7424620239B1A5246B4
:1003A000DA40414613004A468A4017001F4382E75D
:1003B000424620239B1A2A0046469A402300F340D7
:1003C0001343D5E74246202300219B1A00220091C7
:1003D00001920122DA40019282E742462023260060
:1003E0009B1ADE402F00B446974066463B003343DD
:1003F000C9E7C04610B5002903D100F007F8203046
:1004000002E0081C00F002F810BDC0461C210123C8
:100410001B04984201D3000C10391B0A984201D3E7
:10042000000A08391B09984201D30009043902A2C5
:10043000105C40187047C04604030202010101012C
:100440000000000000000000FA210A4B70B589008E
:1004500005001868FFF762FE00F060F80400012054
:10046000002C05D102382200290000F027F82000D6
:1004700070BDC046040000204023084A10B5116832
:1004800003200B431360FFF7DFFF041E03D101F0CD
:1004900035FD200010BD0124FBE7C04600200240CE
:1004A000024A1368013313607047C046680D00208C
:1004B000014B18687047C046680D002070B589016F
:1004C000002814DA0F23C0B20340083B114A9B08EE
:1004D0009B009B18032210409040FC3215001140F5
:1004E00085408140DC69AC432143D96170BD03255F
:1004F00083082840A840FC352E00074A9B009B1823
:10050000C02286402940814092009C58B443214338
:100510009950EBE700ED00E000E100E0094A431EDE
:10052000012093420DD8C021074A08485360036A4E
:1005300009061B021B0A0B4303620020072390607D
:1005400013607047FFFFFF0010E000E000ED00E0E7
:10055000F0B5504A0B688218541EA24185B0019331
:10056000002305320392019ADA4001D105B0F0BDB3
:1005700001259D40019A2A40009200D188E04A68F6
:1005800094461022644694432200013C022A1FD163
:1005900007240F271C40A400A740DA089200821805
:1005A000166ABE430F69A7403E43166203245E00ED
:1005B000B4408268A243CC68B44022438260624661
:1005C000D206D20F9A404468AC432243426001E015
:1005D000012CEBD9032425005E00B5406246ED43B3
:1005E0002240B24007682F403A430260C26815407B
:1005F0008A68B24015436246C560D20048D50127DB
:10060000254D1C406A6BA4003A436A63234A9D0847
:10061000AD00AD180F22A240AE6896430296A02608
:100620000022F605B04208D01D4E3A00B04204D078
:100630001C4F9218B84200D0039AA2406746029C11
:100640002243AA60184A009C1668009DE443354383
:10065000FF0301D435002540674615605668009DAC
:100660003543BF0301D43500254067465560966881
:10067000009D3543FF0201D4350025406746956053
:10068000D568009E2E43BF0201D425402E00D660BF
:10069000013368E700E4FFAF0010024000000140B2
:1006A000000400500008005000040140002A01D05E
:1006B000816170478162FCE70C22184B10B5D96844
:1006C0000A40082A26D00C2A06D0042A1AD11B6810
:1006D000DB0621D4124810BD8A021248120F825C38
:1006E0000902D868890F0131C00304D50E48504370
:1006F000FFF714FDEFE71B68DB0601D50B48F6E7B3
:100700000748F4E780205B6800021B045B0F01339D
:100710009840E0E70448DEE70448DCE700100240C8
:100720000024F4003221000800127A0000093D0084
:10073000F0B5050087B0002802D1012007B0F0BD58
:100740000C23C04CE668E2681E4080235B021A401E
:1007500001920268D2073DD42B689B0700D583E045
:100760002B68DB0628D5002E00D0DDE023689B0532
:1007700002D5AB69002BE0D06268B3492B6A0A400E
:100780001A4362606168EA690902090A12060A43AB
:10079000626080225B0B013312029A401300E16811
:1007A00003200A06A949120F8A5CD340A84A1360A5
:1007B000FFF74AFE0028C1D12B681B0700D5EAE0ED
:1007C0002B685B0700D50CE16B6A002B00D091E130
:1007D0000020B3E7082E04D00C2E09D1019A002A7C
:1007E00006D023689B03B7D56B68002BB4D1A4E770
:1007F0006A689A4211D1226813432360FFF758FEBA
:1008000007008022236892021342A5D1FFF750FE11
:10081000C01B6428F5D9032090E7A021C9028A42B1
:1008200005D180222168D2020A432260E3E72168D1
:1008300088480140216021680B400593059B86494B
:1008400023680B402360002AD8D1FFF731FE070050
:10085000802223689202134200D17DE7FFF728FE31
:10086000C01B6428F4D9D6E72022EB68134203D0DA
:100870002168934311432160042E04D00C2E25D10E
:10088000019A002A22D12268520702D5002B00D1FA
:1008900053E761682A697148120201400A4309213D
:1008A000626022688A4313432360FFF705FFE36811
:1008B000664A1B061B0FD35CD840654B18600320AB
:1008C000FFF7C2FD002800D14AE737E7002B19D017
:1008D000092122688A4313432360FFF7E9FD0700DB
:1008E00004222368134207D062682B695B491B020C
:1008F0000A401343636033E7FFF7DAFDC01B0228A9
:10090000EED988E70122236893432360FFF7D0FDE7
:10091000070004222368134200D121E7FFF7C8FD36
:10092000C01B0228F5D976E7AB69002B20D08023C5
:1009300022685B0013432360FFF7BAFD07008022A3
:100940002368920013420DD063683F4A13402A6A1D
:10095000134363606268EB6912021B06120A1343B9
:10096000636029E7FFF7A4FDC01B0228E7D952E71F
:1009700023683B4A13402360FFF79AFD070080225B
:1009800023689200134200D116E7FFF791FDC01BC8
:100990000228F4D93FE76A690123002A10D0226DAA
:1009A00013432365FFF784FD07000222236D1342E2
:1009B00000D005E7FFF77CFDC01B0228F5D92AE728
:1009C000226D9A432265FFF773FD07000222236D13
:1009D000134200D1F4E6FFF76BFDC01B0228F5D9E6
:1009E00019E780230021A26B5B0501911A4204D113
:1009F000A26B1343A363012301938022194F52007A
:100A00003B68134208D08022AB68520093422BD13E
:100A1000226D134323654CE080223B685200134350
:100A20003B60FFF745FD80235B00029003933B682A
:100A3000039A1342E7D1FFF73BFD029BC01A6428DB
:100A4000F5D9E8E600100240FF1FFFFF1A21000859
:100A500004000020FFFFFEFFFFFFFBFFFFE0FFFFA2
:100A6000FFFEFFFF00700040002B16D1236D534A9C
:100A700013402365236D524A13402365FFF718FD89
:100A800007008022236D920013422AD0FFF710FD49
:100A90004C4BC01B9842F4D9BDE6A021C9008B4243
:100AA0000BD18023216DDB000B432365236D1A439B
:100AB0002265FFF7FDFC07000EE0236D3F4A13405F
:100AC0002365236D3E4A1340A4E7FFF7F1FC3D4B3D
:100AD000C01B984200D99EE68022236D92001342EB
:100AE000F3D0019B012B00D06EE6A36B364A134076
:100AF000A36369E60C2E43D0344A022B2ED123681F
:100B0000802613402360FFF7D3FC0700B604236858
:100B100033421DD1E96AAB6AE2680B432C490A40B3
:100B200013432A6B80251343E360802322685B0410
:100B300013432360FFF7BCFC0600AD0423682B427F
:100B400000D045E6FFF7B4FC801B0228F6D962E628
:100B5000FFF7AEFCC01B0228D9D95CE623688025CC
:100B600013402360FFF7A4FC0600AD0423682B426A
:100B700000D12DE6FFF79CFC801B0228F6D94AE63F
:100B80001800012B00D1D9E58022E368A96A52023E
:100B90001A4001208A4200D0D0E5F022E96A92038F
:100BA0001A408A4200D0C9E5C02000040340286BE7
:100BB000181A431E9841C0B2C0E5C046FFFEFFFFB1
:100BC000FFFBFFFF88130000FFFFFFEFFFFFFFFEAB
:100BD000FFFF02FFF7B5061E019101D10120FEBD06
:100BE0000122514C0199236813408B4227D332686C
:100BF00093072FD4D30735D40123226801991A40D3
:100C0000914200D281E03268484C530700D584E01D
:100C1000130706D5E26833694549DB000A401343F0
:100C2000E360FFF749FDE368424A1B061B0FD35CF4
:100C3000D840414B18600320FFF706FCCFE723683C
:100C4000019993430B43236023681340019A9A420E
:100C5000C4D1CCE7F0203549CB688343B068034367
:100C6000CB60C7E7314D72682B68022A19D19B030C
:100C7000B4D50321EB688B431343EB60FFF718FCFB
:100C800073680700022B19D10C22EB681340082B64
:100C9000B2D0FFF70DFC294BC01B9842F4D90320BA
:100CA0009DE7032A02D19B01E3D497E7012A02D1F1
:100CB0005B07DED492E79B05DBD48FE7032B0BD1D8
:100CC0000C22EB681340934296D0FFF7F1FB1B4BCD
:100CD000C01B9842F4D9E2E7012B10D00C22EB683C
:100CE000134289D0FFF7E4FB144BC01B9842F5D99F
:100CF000D5E7FFF7DDFB114BC01B9842CFD80C2284
:100D0000EB681340042BF4D176E722689A43226003
:100D100022681A4200D061E775E7E36808490B4092
:100D2000F1680B43E36073E70020024000100240CB
:100D3000FFC7FFFF1A2100080400002088130000ED
:100D4000FFF8FFFF044B054ADB685B055B0FD35CD4
:100D5000034A1068D8407047001002402A2100085A
:100D600004000020044B054ADB689B045B0FD35C46
:100D7000034A1068D8407047001002402A2100083A
:100D8000040000200368F7B505009B0638D58023D2
:100D900000214F4C5B05A26B00911A4204D1A26B5B
:100DA0001343A3630123009380274A4E7F003368D7
:100DB0003B424CD0C022C02120686B689203104097
:100DC00089021A40904253D1226D0A4059D1696874
:100DD000C0230A009B021A409A4207D123683E486A
:100DE0000340C020800301400B432360236D1A435E
:100DF000009B2265012B03D1A36B384A1340A363E8
:100E00002A68930706D50C203149CB6C8343A86828
:100E10000343CB64530706D52D493148CB6C0340BF
:100E2000E8680343CB64130706D529492D48CB6CEA
:100E3000034028690343CB640020130617D5244AD6
:100E40002949D36C0B4069690B43D3640FE03368C5
:100E50003B433360FFF72CFB019033683B42A9D141
:100E6000FFF726FB019BC01A6428F6D90320FEBDBC
:100E70001A000A408A42A7D1226801209203A3D512
:100E8000F5E70B409A42A2D02B689B069FD58022A3
:100E9000216D206D120302432265226D134B14480D
:100EA0000B40024022652365CB0500D48FE7FFF796
:100EB000FFFA80270600BF00236D3B4200D086E783
:100EC000FFF7F6FA0B4B801B9842F5D9CEE7C046E8
:100ED0000010024000700040FFFFCFFFFFFFFFEF58
:100EE000FFF3FFFFFFCFFFFFFFFFF3FFFFFFFCFF5D
:100EF000FFFFF7FF8813000070B504000120002CED
:100F000033D000232500A36251352B78DBB2002BB0
:100F100005D1220050321370200000F0C3FF0223DD
:100F2000402221682B700B68A06893430B606368B4
:100F3000A2690343E06803432069034360690343F4
:100F4000E0690343206A0343A06A034380208000D2
:100F5000104003430B600423120C1A40636A002004
:100F60001A4301234A6060652B7070BDF8B5040018
:100F70002569A26803682A436569C1692A4318681C
:100F8000754D0A43284002431A605A687348744DED
:100F90000240E06802435A60A069AB4201D0226A75
:100FA00010439A686F4E324002439A606E4A9342F1
:100FB00013D10C206D4BDA6C02406D48805C8022AE
:100FC0001202914200D089E0082815D8FFF79CF85A
:100FD0004F575A147B1414147E00AB4200D0B3E078
:100FE000C0218020614A0901D36CC0000B408342BC
:100FF00038D003D8002B0AD001250DE08020000155
:1010000083420ED08B42F7D1802000020DE0FFF723
:1010100099FE0025A84208D10023280023666366B4
:10102000F8BD1368DB0620D55248032263685A4393
:101030008242E1D81A038242DED30027020E010267
:101040005E0889197A41080011001A003B00FFF779
:10105000F1F8494BC218494B9A42CDD823683D005C
:10106000D860D9E7FFF728FBD3E74548DDE7FFF76E
:1010700069FE636840005B08C01861680BE0FFF719
:1010800071FEF6E710251A68616815404808002DC2
:1010900006D03C4BC018FFF741F8002583B204E0AE
:1010A000394BC018FFF73AF883B2190037481039A6
:1010B0008142A1D80F2118001B0788435B0F2168CC
:1010C0000343CB60A8E7FFF7F7FAD2E76368580855
:1010D00080235B02D0E701250023E6E7082837D804
:1010E000FFF712F8050C0F362A3636362D00FFF7BB
:1010F00029FE63685B08C01861680BE0FFF732FEE9
:10110000F7E710251A68616815404808002D0DD0D2
:10111000184BC018FFF702F8002583B219001B48CE
:101120001039814200D967E72168CAE7144BC0181B
:10113000FEF7F4FF83B2F1E7FFF7BEFAD9E7636881
:10114000580880231B02D6E780231B029942C2D095
:1011500001250023E2E7C046F369FFEFFFCFFFFF61
:1011600000480040FFF4FFFF004400400010024030
:10117000FC20000800093D0000FDFFFFFFFC0F0000
:101180000024F40000127A000048E801EFFF00009C
:10119000436A30B5DA0706D50168284C4A68224010
:1011A000846A22434A609A0706D50168244C4A683B
:1011B0002240C46A22434A605A0706D50168214C7E
:1011C0004A682240046B22434A601A0706D5016828
:1011D0001D4C4A682240446B22434A60DA0606D519
:1011E00001681A4C8A682240846B22438A609A06FE
:1011F00006D50168164C8A682240C46B22438A6077
:101200005A0610D50168134D4A68046C2A402243DF
:101210004A6080225203944205D14A680E4C224013
:10122000446C22434A601B0606D502680B4953688A
:101230000B40816C0B43536030BDC046FFFFFDFF88
:10124000FFFFFEFFFFFFFBFFFF7FFFFFFFEFFFFF43
:10125000FFDFFFFFFFFFEFFFFFFF9FFFFFFFF7FF36
:10126000F8B504000E0015001F002268D369334052
:101270009B1B59424B41AB4201D000201BE0069B17
:101280000133F3D0FFF714F9069BC01B834201D34F
:10129000002BEAD1236808491A6803200A401A6023
:1012A0009A68A331FF318A439A6020236367A3675A
:1012B000002370342370F8BD5FFEFFFF73B5002676
:1012C0000400C667FFF7F4F8236805001B681B07D6
:1012D00015D423681B685B070AD580210E4B0022BA
:1012E0000093C9032B002000FFF7BAFF002811D19B
:1012F000202300206367A367703420700BE08021F7
:10130000054B32000093890303002000FFF7A8FF7C
:101310000028DED0032076BDFFFFFF0110B5041EBC
:1013200001D1012010BD436F002B04D102007032A7
:10133000137000F049FE24230121226863671368BB
:1013400020008B431360FFF711FE0128E9D0636A88
:10135000002B02D02000FFF71BFF236807495A68C3
:1013600020000A402A215A609A688A439A60012222
:1013700019680A431A60FFF7A1FFD3E7FFB7FFFF21
:1013800010B500F04FFB002010BD7FB50B00466884
:101390000168028A0825455F0024842D00D0EC1CDA
:1013A00003A801900094300000F078FA002301288F
:1013B00000D1039B180004B070BD10B5002800D107
:1013C000013000F047FC002010BD10B500F092FC89
:1013D000012801D000F00EF910BD030001220833EE
:1013E0004360C36003610023524282600360704720
:1013F00000230361704743689A684B608A609A686B
:10140000516099600368086101330360704703000D
:101410000A6830B50833541C0BD103695A684A6016
:1014200091608B605960036808610133036030BDCF
:1014300023005C682568AA42FAD2EFE74168826817
:1014400003698A60826851605968884200D15A6095
:10145000002202611A68013A1A6018687047000099
:10146000002382B00193064B1B68013301D072B692
:10147000FEE772B6019B002BFCD002B07047C0465D
:10148000000000200000000000000000000000003C
:101490000B4A13681868203080F30988022080F313
:1014A0001488BFF36F8F3FBCAE4608BC04BC62B665
:1014B0001847C046C046C046C046C046C046C046A3
:1014C0003C0C002010B58024031F64041C60043B06
:1014D00019600349043B1960143B40381A6010BD81
:1014E0006114000870470000FF22124B12041968B3
:1014F00070B50A431A60FF221968002412060A43D5
:10150000FA211A600C4D0D4B2C601C600C4B8900AD
:101510001868FEF703FE0B4B0138186007232B6099
:10152000094B1C60FFF7B4FF00F0AEFBFFF798FF1C
:10153000200070BD20ED00E010E000E018E000E0C9
:101540000400002014E000E0000000208022044B92
:1015500052051A60BFF34F8FBFF36F8F7047C046BD
:1015600004ED00E072B6044A136801331360BFF360
:101570004F8FBFF36F8F704700000020054A13683C
:10158000002B01D172B6FEE7013B1360002B00D1A6
:1015900062B6704700000020EFF3108072B670470B
:1015A00080F3108870470000000000000000000079
:1015B000EFF309800E4B1A6820381060F0C04446E3
:1015C0004D4656465F46F0C008B572B600F05CFB6B
:1015D00062B60CBC116808681030F0C8A046A94675
:1015E000B246BB4680F309882038F0C81847C04689
:1015F0003C0C002010B5FFF7CFFF040000F044FAC8
:10160000002803D08022034B52051A602000FFF708
:10161000C7FF10BD04ED00E010B50F4B1A68824201
:1016200018D35C681919884203D141681800091958
:10163000596041684418A24207D1084C2468A2426C
:1016400003D054681268611841600260984200D06B
:10165000186010BD1300E1E7340C002024000020C6
:10166000F8B5040000F008FA384A39481368002B2E
:101670001ED138490733194236D0CD189D43C023B7
:101680001B01C9184B1B29000025334ECB18756070
:1016900031600726083BB3431D605D605D1A13602F
:1016A00028C12E4B1D602E4B1D6080231B0603603E
:1016B0000668344216D1002C14D0230007210833C9
:1016C0000B4201D08B430833002B0BD024490D680B
:1016D000AB4207D820490C686068834207D812687B
:1016E00094420BD1002528E0C0231B01CCE72768DA
:1016F000BC46002FF3D021006446EDE70A681700CE
:1017000022680A60C21A102A08D9E018410701D0DD
:1017100072B6FEE742606360FFF77EFF6368104ABF
:10172000ED1A15600D4A11688D4200D215601E43F6
:101730003D00002308356660236000F023FA6B0744
:1017400001D072B6FEE72800F8BDC0462400002094
:10175000280C002028000020340C0020300C002031
:101760002C0C002010B500281BD00E4A0838436806
:10177000126804001A4201D172B6FEE7016800291E
:1017800001D072B6FEE79343436000F075F9064A54
:101790006368116820005B181360FFF73DFF00F0DD
:1017A000F1F910BD280C00202C0C0020074A13680A
:1017B0001968074B002903D1012252421A60704771
:1017C0001268D268D2685268F8E7C046400C002020
:1017D000180D0020F8B50400144B154D1E6828683C
:1017E0000F000430FFF72AFE631C07D1002F05D03D
:1017F000296810480431FFF7FEFDF8BD2B68341945
:101800005C60A64206D90C4B186829680431FFF7C2
:10181000FEFDF2E7094B186829680431FFF7F7FD70
:10182000074B1A689442E8D21C60E6E7600D00207E
:101830003C0C0020380D0020440C0020400C0020FF
:10184000180D002070B5114C2368002B06D1104BE9
:101850001B68012BF7D9FFF779FEF4E7FFF782FE4B
:101860000C4BDB68DD68281DFFF7E8FD0A4A1368AA
:10187000013B13602368013B2360FFF77FFE286B69
:10188000FFF770FF2800FFF76DFFDCE7D80C0020A2
:10189000480C00204C0D0020D40C0020F0B5950021
:1018A00085B0029028000F000393FFF7D9FE061EB3
:1018B00000D18EE05420FFF7D3FE041E00D185E056
:1018C0000723043D066376199E43002300961A0001
:1018D000F95C3432A154FA5C002A02D00133102B97
:1018E000F5D1230000250A9E43331D70062E00D932
:1018F0000626231D1800E6626664A5640193FFF7BF
:1019000077FD20001830FFF773FD07239E1B23008F
:1019100050332461A6616462E564039A1D700299E4
:101920000098FFF7CFFD0B9B2060002B00D01C60C0
:10193000FFF718FE2E4B2F4D1A6801321A602A68E5
:10194000002A49D12C601B68012B1DD12A4E37007B
:101950008C3730001436FFF740FDB742F9D1274EDF
:101960003000FFF73AFD264F3800FFF736FD2548D7
:10197000FFF733FD2448FFF730FD2448FFF72DFD26
:10198000234B1E60234B1F60234A136801331360EF
:10199000224AE36A11688B4200D91360142058432D
:1019A000154B01991818FFF726FDFFF7E7FD1C4BB3
:1019B00001261B68002B06D02B68DA6AE36A9A427C
:1019C00001D2FFF7C3FD300005B0F0BD3000FFF7D6
:1019D000C9FE01267642F6E7114B1B68002BD3D1D6
:1019E0002B68E26ADB6A9342CED82C60CCE7C04613
:1019F000D40C00203C0C0020480C0020EC0C0020F3
:101A0000000D0020200D00204C0D0020380D00207E
:101A1000400C0020440C0020E40C0020E80C0020C6
:101A2000340D002013B500240D4B00940193802247
:101A300023000C490C48FFF731FF01280BD172B687
:101A400001220A4B52421A60094B1860094B1C6074
:101A5000FFF74AFD13BD431CFCD172B6FEE7C0463A
:101A6000140D00200921000845180008180D002059
:101A7000340D0020600D0020024A1368013313600A
:101A80007047C046E00C0020334BF7B51B68002BB5
:101A900035D1324B1C6801341C60002C11D1304B05
:101AA0001A681268002A01D072B6FEE72D4A19683A
:101AB0001068186011602C4A136801331360FFF737
:101AC00075FE2A4F00263B689C4207D3244B1A68B8
:101AD0001268002A19D101235B423B60244B1B682A
:101AE000DA6A14235343234AD358012B00D9012621
:101AF000214B1B68002B00D001263000FEBD1F4A81
:101B00000026136801331360F2E71B68DB68DD68A9
:101B10006B689C42E1D32B1D18000193FFF78EFCEC
:101B2000AB6A002B03D028001830FFF787FC144B5A
:101B3000E86A1A68904200D91860142358430D4B84
:101B4000291D1818FFF757FC094BEA6A1B68DB6A66
:101B50009A42BBD30126B9E7E00C0020600D0020BB
:101B6000400C0020440C00201C0D0020180D00200B
:101B70003C0C0020480C0020640D0020DC0C0020F0
:101B8000E80C0020F8B52B4C2368002B01D172B66D
:101B9000FEE7FFF7E7FC2368013B23602468002C85
:101BA00004D00024FFF7EAFC2000F8BD224B1B689C
:101BB000002BF6D014260127204B1A68002A1AD1D0
:101BC000002C01D0FFF7F2FD1D4D2C68002C0AD02F
:101BD0000126FFF759FF002801D01A4B1E60013C77
:101BE000002CF6D12C60174B1B68002BD9D0FFF7C7
:101BF000ADFC0124D6E7DB68DC682000251D183029
:101C0000FFF71CFC2800FFF719FC0F4BE06A1A686D
:101C1000904200D9186070430C4B29001818FFF748
:101C2000EAFB0B4BE26A1B68DB6A9A42C4D3054BA2
:101C30001F60C1E7E00C0020D40C0020200D002024
:101C4000DC0C0020640D0020E80C0020480C002073
:101C50003C0C002070B5041E02D1FFF777FC70BD6C
:101C6000084B1D68002D01D072B6FEE7FFF704FF98
:101C700029002000FFF7AEFDFFF784FF0028EED11A
:101C8000EBE7C046E00C0020154B30B51A68154B49
:101C9000002A02D001221A6030BD142512481A60B1
:101CA000026812492B0053435C58002C12D0CC1808
:101CB000656808336D68CB1865609D4201D16B681B
:101CC000636014235343C9184B68D968084B1960E3
:101CD0000260E1E7002A01D172B6FEE7013AE1E7CE
:101CE000E00C0020640D0020E80C0020480C0020CF
:101CF0003C0C0020054B01201B68002B04D0044B3A
:101D000018684342584140007047C046340D0020D7
:101D1000E00C002010B50120FFF74FFBFBE70000AF
:101D200030B587B001A80200054B32CB32C212CBCE
:101D300012C20021FFF729FB024B186007B030BD2B
:101D4000E82000086C0D0020F0B589B014220021B5
:101D500003A800F0B5F904200126C027A02500241F
:101D6000134BED05D96AFF000143D962DA6A3900E5
:101D700002400192019ADA6A28003243DA62DB6A91
:101D8000002233400293029BFEF790FC094B03A90B
:101D90002800039304940594FEF7DAFB03A92800B6
:101DA0000397049605940694FEF7D2FB09B0F0BDA4
:101DB000001002401260000070B598B0342200217B
:101DC0000BA800F07DF914220021684600F078F994
:101DD0001822002105A800F073F91749174A0B686B
:101DE00001261A4080231B0113430B60A023DB0252
:101DF0000C9380235B021593C0231B03169380234F
:101E00000225DB030BA817930B961495FEF790FCA5
:101E10000F230024009331000C3B68460193029489
:101E200003940494FEF7D6FE05A805950794FEF7E3
:101E3000A9FF18B070BDC04600700040FFE7FFFF6B
:101E400010B5FEF719FBFFF7B7FFFFF77DFF00F0B6
:101E500009F800F09DF8FFF763FFFFF791FAFEE73E
:101E6000704700000D480E4B10B5036082235B00E5
:101E700043608022002392008360C360036143615A
:101E8000C36103624362836207338261C362FFF707
:101E900033F8002801D0FFF7E3FF10BD700D0020DC
:101EA0000030014010B5040086B01422002101A8C2
:101EB00000F006F90F4B22689A4218D180220E4B8F
:101EC0005201596BA0200A4301215A63DA6AC00506
:101ED0000A43DA62DB6A0B400093009BE023019324
:101EE000DE3B02935B1801A90493FEF731FB06B0B9
:101EF00010BDC04600300140001002400122084BD6
:101F000010B5596B02200A435A638022996B52051F
:101F10000A439A63032100224042FEF7CFFA10BD24
:101F2000001002407047FEE710B5FEF7B9FAFFF760
:101F30004CFA10BD8022104B520019680A431A60F7
:101F4000DA680E490A40DA601A680D490A40012130
:101F50001A609A688A439A601A680A490A401A60A5
:101F6000DA6809490A40DA6000221A618022074BC8
:101F700012059A607047C046001002400C40FF886E
:101F8000F6FFF6FEFFFFFBFFFFFF02FF00ED00E0A4
:101F90000B480C4B10B50360E1235B0243600C223D
:101FA000002342618360C36003618361C361036294
:101FB0004362FFF7B3F9002801D0FFF751FF10BDCE
:101FC000C80D00200044004010B5040086B0142263
:101FD000002101A800F074F8104B22689A421AD12F
:101FE00080220F4B9202996BA0200A4301219A6331
:101FF000DA6AC0050A43DA62DB6A0B400093009B91
:102000000C2301930A3B02935B1804935B1801A90C
:102010000593FEF79DFA06B010BDC046004400408F
:10202000001002400D488546002103E00C4B5B5830
:10203000435004310B480C4B42189A42F6D30B4ADA
:1020400002E0002313600432094B9A42F9D3FFF7F0
:1020500071FF00F011F8FFF7F3FEFEE7002000200B
:102060004C2100080000002008000020080000208B
:10207000480E0020FEE7000070B500260C4D0D4C08
:10208000641BA410A64209D1002600F021F80A4DD5
:102090000A4C641BA410A64205D170BDB300EB58D6
:1020A00098470136EEE7B300EB5898470136F2E760
:1020B0004421000844210008442100084821000868
:1020C00003008218934200D1704719700133F9E779
:1020D000F8B5C046F8BC08BC9E467047F8B5C04687
:0820E000F8BC08BC9E467047E5
:1020E8000E210008151D0008000000000000000077
:1020F80080000000001010100410101002101010C2
:102108000849444C450064656661756C7454617394
:102118006B00000000000000000001020304060735
:1021280008090000000001020304030406080C105B
:04213800182030003B
:08213C0038E1FF7F0100000003
:04214400E9000008A6
:04214800C1000008CA
:08214C00AAAAAAAA00002000C3
:0400000508002025AA
:00000001FF
